:020000040800F2
:1000000000800120AD040008350400083B0400080E
:1000100041040008470400084D04000800000000E7
:100020000000000000000000000000005304000871
:1000300061040008000000006F0400087D0400084F
:10004000FD040008FD040008FD040008FD0400088C
:10005000FD040008FD040008FD040008FD0400087C
:10006000FD040008FD040008FD040008FD0400086C
:10007000FD040008FD040008FD040008FD0400085C
:10008000FD040008FD040008FD0400080000000055
:10009000000000000000000000000000FD04000857
:1000A000FD040008FD040008FD040008FD0400082C
:1000B000FD040008FD040008FD040008FD0400081C
:1000C000FD040008FD040008FD040008FD0400080C
:1000D000FD040008FD040008FD0400080000000005
:1000E000FD040008FD040008FD04000800000000F5
:1000F000000000000000000000000000FD040008F7
:1001000000000000FD040008FD040008FD040008D4
:1001100000000000000000000000000000000000DF
:10012000FD040008FD040008FD040008FD040008AB
:10013000FD040008000000000000000000000000B6
:10014000000000000000000000000000FD040008A6
:10015000FD040008FD040008FD040008FD0400087B
:10016000FD040008FD04000800000000000000007D
:10017000000000000000000000000000000000007F
:1001800000000000FD040008000000000000000066
:04019000FD04000862
:1001940010B5054C237833B9044B13B10448AFF3BD
:1001A40000800123237010BD040000200000000023
:1001B4007005000808B5034B1BB103490348AFF3AE
:1001C400008008BD00000000080000207005000841
:1001D40080B582B000AF114B1B6B104A43F007038C
:1001E400136300F01FF800F063F800F0DBF840F64A
:1001F400B83000F08FF80A4B1B6903F00203002BA0
:10020400F9D040F6B83000F085F800F0D9F803468C
:10021400FB7140F6B83000F07DF8ECE7003802409E
:100224000008024080B400AF1E4B1B681D4A1B0C23
:100234001B0413601B4B1B681A4A43F4AA4343F084
:1002440055031360174B9B68164A1B0C1B049360E1
:10025400144B5B69134A23F0FF035361124B1B6871
:10026400114A23F0FF0313600F4B1B680E4A43F03F
:10027400550313600C4B9B680B4A23F0FF039360F8
:10028400094B5B69084A23F00F035361074B1B6852
:10029400064A23F00F03136000BFBD465DF8047BDC
:1002A400704700BF00000240000402400008024002
:1002B40080B400AF0B4B1B6C0A4A43F00103136478
:1002C4004FF080430F229A624FF080434FF6FF7243
:1002D400DA624FF0804301221A6000BFBD465DF828
:1002E400047B70470038024080B483B000AF78606C
:1002F4004FF0804300225A6200BF4FF080435B6A94
:100304007A689A42F9D800BF00BF0C37BD465DF841
:10031400047B704780B584B000AF78600023FB6035
:1003240006E04FF47A70FFF7DFFFFB680133FB60F0
:10033400FA687B689A42F4D300BF00BF1037BD4609
:1003440080BD000080B582B000AF0346FB71134B43
:100354005B69124A43F002035361104B5B690F4A15
:1003640023F0010353610E4B5B6903F47F42FB7975
:100374000B4913434B61094B5B69084A23F008039B
:1003840053610A20FFF7B0FF044B5B69034A43F053
:100394000803536100BF0837BD4680BD0004024016
:1003A4000000024080B582B000AFB023FB71FB793E
:1003B4001846FFF7C7FF00BF0837BD4680BD0000E1
:1003C40080B582B000AF184B1B68174A1B0C1B0486
:1003D4001360164B5B69154A23F002035361134BF8
:1003E4005B69124A23F001035361104B5B690F4AA6
:1003F40023F0040353610A20FFF776FF0A4B1B69BD
:10040400FB710A4B5B69094A43F004035361064BD1
:100414001B68054A43F4AA4343F055031360FB7970
:1004240018460837BD4680BD000002400004024063
:1004340080B400AFFEE780B400AFFEE780B400AF45
:10044400FEE780B400AFFEE780B400AFFEE780B4FF
:1004540000AF00BFBD465DF8047B704780B400AFB9
:1004640000BFBD465DF8047B704780B400AF00BF99
:10047400BD465DF8047B704780B500AF00F03EF8E0
:1004840000BF80BD80B400AF064BD3F88830054A66
:1004940043F47003C2F8883000BFBD465DF8047BA6
:1004A400704700BF00ED00E0DFF834D00D480E497E
:1004B4000E4A002302E0D458C4500433C4188C42BA
:1004C400F9D30B4A0B4C002301E013600432A2421F
:1004D400FBD3FFF7D7FF00F025F8FFF779FE70474D
:1004E4000080012000000020040000209005000886
:1004F4000400002024000020FEE7000080B400AFC8
:10050400064B1B781A46064B1B681344044A1360B7
:1005140000BFBD465DF8047B704700BF00000020AB
:100524002000002070B50D4D0D4C641BA410002656
:10053400A64209D10B4D0C4C00F018F8641BA41012
:100544000026A64205D170BD55F8043B98470136F4
:10055400EEE755F8043B98470136F2E788050008B2
:1005640088050008880500088C050008F8B500BF58
:10057400F8BC08BC9E467047F8B500BFF8BC08BC80
:040584009E467047D8
:04058800B9010008AD
:04058C0095010008CD
:040590000100000066
:04000005080004AD3E
:00000001FF
