:020000040800F2
:10000000008001206D050008F5040008FB040008CD
:1000100001050008070500080D05000800000000A4
:1000200000000000000000000000000013050008B0
:1000300021050008000000002F0500083D0500080C
:10004000BD050008BD050008BD050008BD05000888
:10005000BD050008BD050008BD050008BD05000878
:10006000BD050008BD050008BD050008BD05000868
:10007000BD050008BD050008BD050008BD05000858
:10008000BD050008BD050008BD0500080000000012
:10009000000000000000000000000000BD05000896
:1000A000BD050008BD050008BD050008BD05000828
:1000B000BD050008BD050008BD050008BD05000818
:1000C000BD050008BD050008BD050008BD05000808
:1000D000BD050008BD050008BD05000800000000C2
:1000E000BD050008BD050008BD05000800000000B2
:1000F000000000000000000000000000BD05000836
:1001000000000000BD050008BD050008BD05000891
:1001100000000000000000000000000000000000DF
:10012000BD050008BD050008BD050008BD050008A7
:10013000BD050008000000000000000000000000F5
:10014000000000000000000000000000BD050008E5
:10015000BD050008BD050008BD050008BD05000877
:10016000BD050008BD0500080000000000000000FB
:10017000000000000000000000000000000000007F
:1001800000000000BD0500080000000000000000A5
:04019000BD050008A1
:1001940010B5054C237833B9044B13B10448AFF3BD
:1001A40000800123237010BD040000200000000023
:1001B4003006000808B5034B1BB103490348AFF3ED
:1001C400008008BD00000000080000203006000880
:1001D40080B582B000AF00F02DF800F07BF8C020AD
:1001E40000F0B4F8AA23FB71FB79184600F0D6F8A6
:1001F4004FF47A7000F062F900F02CF90346BB71F9
:10020400BB7903F01003002B0BD000F0F1F8034688
:100214007B717B79184600F0C1F84FF47A7000F0D6
:100224004DF9FB79AA2B01D1552300E0AA23FB71D8
:10023400DAE7000080B400AF234B1B68224A43F482
:100244008033136000BF204B1B6803F40033002B82
:10025400F9D01D4B1D4A5A601B4B1B681A4A43F0C8
:100264008073136000BF184B1B6803F00073002BEE
:10027400F9D0174B02221A60134B9B68124A23F0E1
:1002840003039360104B9B680F4A43F0020393608F
:1002940000BF0D4B9B6803F00C03082BF9D10A4BEC
:1002A4009B68094A23F0F0039360074B9B68064A56
:1002B40043F480539360044B034A9B68936000BFEC
:1002C400BD465DF8047B7047003802400854400086
:1002D400003C024080B400AF194B1B6B184A43F03A
:1002E40003031363174B1B68164A1B0C1B04136090
:1002F400144B1B68134A43F4AA4343F05503136099
:10030400104B9B680F4A43F4AA4343F05503936090
:100314000D4B1B680C4A23F0FF0313600A4B1B6848
:10032400094A43F055031360074B9B68064A43F0A0
:100334005503936000BFBD465DF8047B704700BF62
:1003440000380240000002400004024080B483B040
:1003540000AF0346FB710F4B4FF480329A610D4B93
:1003640018229A610B4B4FF480229A610A4B5B6905
:1003740003F47F42FB79084913434B61054B042284
:100384009A61044B01229A6100BF0C37BD465DF8A7
:10039400047B7047000402400000024080B483B034
:1003A40000AF0346FB71104B4FF480329A610E4B41
:1003B4004FF4C0129A610C4B4FF480229A610B4B9C
:1003C4005B6903F47F42FB79084913434B61064B95
:1003D40004229A61044B01229A6100BF0C37BD4686
:1003E4005DF8047B704700BF000402400000024037
:1003F40080B483B000AF154B1B68144A1B0C1B045C
:100404001360134B4FF480329A61114B4FF4C012B6
:100414009A610F4B4FF400329A610C4B1B69FB71CC
:100424000B4B02229A610A4B01229A61074B1B680B
:10043400064A43F4AA4343F055031360FB79184674
:100444000C37BD465DF8047B704700BF00000240D6
:100454000004024080B483B000AF164B1B68154AF9
:100464001B0C1B041360144B4FF480329A61124B23
:100474004FF400229A61104B10229A610E4B4FF4F4
:1004840000329A610B4B1B69FB710B4B02229A6180
:10049400094B01229A61074B1B68064A43F4AA439D
:1004A40043F055031360FB7918460C37BD465DF8DD
:1004B400047B7047000002400004024080B485B011
:1004C40000AF78600023FB6003E000BFFB680133EA
:1004D400FB607B6842F2D00202FB03F3FA689A42A3
:1004E400F3D300BF00BF1437BD465DF8047B7047EB
:1004F40080B400AFFEE780B400AFFEE780B400AF85
:10050400FEE780B400AFFEE780B400AFFEE780B43E
:1005140000AF00BFBD465DF8047B704780B400AFF8
:1005240000BFBD465DF8047B704780B400AF00BFD8
:10053400BD465DF8047B704780B500AF00F03EF81F
:1005440000BF80BD80B400AF064BD3F88830054AA5
:1005540043F47003C2F8883000BFBD465DF8047BE5
:10056400704700BF00ED00E0DFF834D00D480E49BD
:100574000E4A002302E0D458C4500433C4188C42F9
:10058400F9D30B4A0B4C002301E013600432A2425E
:10059400FBD3FFF7D7FF00F025F8FFF719FE7047EC
:1005A4000080012000000020040000205006000804
:1005B4000400002024000020FEE7000080B400AF07
:1005C400064B1B781A46064B1B681344044A1360F7
:1005D40000BFBD465DF8047B704700BF00000020EB
:1005E4002000002070B50D4D0D4C641BA410002696
:1005F400A64209D10B4D0C4C00F018F8641BA41052
:100604000026A64205D170BD55F8043B9847013633
:10061400EEE755F8043B98470136F2E74806000830
:1006240048060008480600084C060008F8B500BF54
:10063400F8BC08BC9E467047F8B500BFF8BC08BCBF
:040644009E46704717
:04064800B9010008EC
:04064C00950100080C
:0406500001000000A5
:040000050800056D7D
:00000001FF
